{
  "transactions": [
    {
      "hash": "0xf6aff45cd96b71bb1193cad9471b4d64e63e713f7182cf58b547c3a33636acc6",
      "transactionType": "CALL",
      "contractName": null,
      "contractAddress": "0xf89eab4a9a4c87d4a40e1e4e325c3cda985b0b26",
      "function": "setPeer(uint32,bytes32)",
      "arguments": [
        "0",
        "0x000000000000000000000000f89eab4a9a4c87d4a40e1e4e325c3cda985b0b26"
      ],
      "transaction": {
        "from": "0x0ece75f3c36f7df2136dac7633165dbff53de3cd",
        "to": "0xf89eab4a9a4c87d4a40e1e4e325c3cda985b0b26",
        "gas": "0x113f8",
        "value": "0x0",
        "input": "0x3400288b0000000000000000000000000000000000000000000000000000000000000000000000000000000000000000f89eab4a9a4c87d4a40e1e4e325c3cda985b0b26",
        "nonce": "0x22c",
        "chainId": "0x2105"
      },
      "additionalContracts": [],
      "isFixedGasLimit": false
    },
    {
      "hash": "0x3e1ceb326d1bcb043025dd36fff10ec05b6c0661e815e4664776ea6939a29094",
      "transactionType": "CALL",
      "contractName": null,
      "contractAddress": "0xf89eab4a9a4c87d4a40e1e4e325c3cda985b0b26",
      "function": "setPeer(uint32,bytes32)",
      "arguments": [
        "0",
        "0x000000000000000000000000ae1b8d3b428d6a8f62df2f623081eac8734168fe"
      ],
      "transaction": {
        "from": "0x0ece75f3c36f7df2136dac7633165dbff53de3cd",
        "to": "0xf89eab4a9a4c87d4a40e1e4e325c3cda985b0b26",
        "gas": "0xa860",
        "value": "0x0",
        "input": "0x3400288b0000000000000000000000000000000000000000000000000000000000000000000000000000000000000000ae1b8d3b428d6a8f62df2f623081eac8734168fe",
        "nonce": "0x22d",
        "chainId": "0x2105"
      },
      "additionalContracts": [],
      "isFixedGasLimit": false
    }
  ],
  "receipts": [
    {
      "status": "0x1",
      "cumulativeGasUsed": "0x14cc4fa",
      "logs": [
        {
          "address": "0xf89eab4a9a4c87d4a40e1e4e325c3cda985b0b26",
          "topics": [
            "0x238399d427b947898edb290f5ff0f9109849b1c3ba196a42e35f00c50a54b98b"
          ],
          "data": "0x0000000000000000000000000000000000000000000000000000000000000000000000000000000000000000f89eab4a9a4c87d4a40e1e4e325c3cda985b0b26",
          "blockHash": "0x53346d6d2fd4675239950d28db8bdd3d98ccbbeb3be2154aa269a0cea7e7afa6",
          "blockNumber": "0x2297b26",
          "blockTimestamp": "0x68dd532f",
          "transactionHash": "0xf6aff45cd96b71bb1193cad9471b4d64e63e713f7182cf58b547c3a33636acc6",
          "transactionIndex": "0x7f",
          "logIndex": "0x22d",
          "removed": false
        }
      ],
      "logsBloom": "0x00000000000000000000000000000000000000000000000000000000000000000000000000000000000000000000000000000000000000000800000000000000000000000000000000000000000000040000000000000000000000000000000000100000000000000000000000000000000000000000000000000000000000000000000000000000000000000000000000000000000000000000000000000000000000000000000000000000000000000000000000000000000002000000000000000000000000000000000000000000000000200000000000040000000000000000000000000000000000000000000000000000000000000000000000000000",
      "type": "0x2",
      "transactionHash": "0xf6aff45cd96b71bb1193cad9471b4d64e63e713f7182cf58b547c3a33636acc6",
      "transactionIndex": "0x7f",
      "blockHash": "0x53346d6d2fd4675239950d28db8bdd3d98ccbbeb3be2154aa269a0cea7e7afa6",
      "blockNumber": "0x2297b26",
      "gasUsed": "0xbcb3",
      "effectiveGasPrice": "0xd223e9",
      "from": "0x0ece75f3c36f7df2136dac7633165dbff53de3cd",
      "to": "0xf89eab4a9a4c87d4a40e1e4e325c3cda985b0b26",
      "contractAddress": null,
      "l1BaseFeeScalar": "0x8dd",
      "l1BlobBaseFee": "0x6",
      "l1BlobBaseFeeScalar": "0x101c12",
      "l1Fee": "0x13af26c80",
      "l1GasPrice": "0x56c0afa7",
      "l1GasUsed": "0x640"
    },
    {
      "status": "0x1",
      "cumulativeGasUsed": "0x14d3ee1",
      "logs": [
        {
          "address": "0xf89eab4a9a4c87d4a40e1e4e325c3cda985b0b26",
          "topics": [
            "0x238399d427b947898edb290f5ff0f9109849b1c3ba196a42e35f00c50a54b98b"
          ],
          "data": "0x0000000000000000000000000000000000000000000000000000000000000000000000000000000000000000ae1b8d3b428d6a8f62df2f623081eac8734168fe",
          "blockHash": "0x53346d6d2fd4675239950d28db8bdd3d98ccbbeb3be2154aa269a0cea7e7afa6",
          "blockNumber": "0x2297b26",
          "blockTimestamp": "0x68dd532f",
          "transactionHash": "0x3e1ceb326d1bcb043025dd36fff10ec05b6c0661e815e4664776ea6939a29094",
          "transactionIndex": "0x80",
          "logIndex": "0x22e",
          "removed": false
        }
      ],
      "logsBloom": "0x00000000000000000000000000000000000000000000000000000000000000000000000000000000000000000000000000000000000000000800000000000000000000000000000000000000000000040000000000000000000000000000000000100000000000000000000000000000000000000000000000000000000000000000000000000000000000000000000000000000000000000000000000000000000000000000000000000000000000000000000000000000000002000000000000000000000000000000000000000000000000200000000000040000000000000000000000000000000000000000000000000000000000000000000000000000",
      "type": "0x2",
      "transactionHash": "0x3e1ceb326d1bcb043025dd36fff10ec05b6c0661e815e4664776ea6939a29094",
      "transactionIndex": "0x80",
      "blockHash": "0x53346d6d2fd4675239950d28db8bdd3d98ccbbeb3be2154aa269a0cea7e7afa6",
      "blockNumber": "0x2297b26",
      "gasUsed": "0x79e7",
      "effectiveGasPrice": "0xd223e9",
      "from": "0x0ece75f3c36f7df2136dac7633165dbff53de3cd",
      "to": "0xf89eab4a9a4c87d4a40e1e4e325c3cda985b0b26",
      "contractAddress": null,
      "l1BaseFeeScalar": "0x8dd",
      "l1BlobBaseFee": "0x6",
      "l1BlobBaseFeeScalar": "0x101c12",
      "l1Fee": "0x13af26c80",
      "l1GasPrice": "0x56c0afa7",
      "l1GasUsed": "0x640"
    }
  ],
  "libraries": [],
  "pending": [],
  "returns": {},
  "timestamp": 1759335216305,
  "chain": 8453,
  "commit": "ece6b94"
}