{
  "transactions": [
    {
      "hash": "0xa0e3ff766e5d19f948300514cbb8005157408c6faec7f14da91b6a867fb50076",
      "transactionType": "CALL",
      "contractName": null,
      "contractAddress": "0xf89eab4a9a4c87d4a40e1e4e325c3cda985b0b26",
      "function": "setPeer(uint32,bytes32)",
      "arguments": [
        "30126",
        "0x00000000000000000000000095608557eb1fa88d07fb6af29fcb76b25a93bb2c"
      ],
      "transaction": {
        "from": "0x0ece75f3c36f7df2136dac7633165dbff53de3cd",
        "to": "0xf89eab4a9a4c87d4a40e1e4e325c3cda985b0b26",
        "gas": "0xa880",
        "value": "0x0",
        "input": "0x3400288b00000000000000000000000000000000000000000000000000000000000075ae00000000000000000000000095608557eb1fa88d07fb6af29fcb76b25a93bb2c",
        "nonce": "0x230",
        "chainId": "0x2105"
      },
      "additionalContracts": [],
      "isFixedGasLimit": false
    },
    {
      "hash": "0x1e1a754fd8af31e2b094689d13f466008530cdde273c944780ddcbc473c9aa65",
      "transactionType": "CALL",
      "contractName": null,
      "contractAddress": "0xf89eab4a9a4c87d4a40e1e4e325c3cda985b0b26",
      "function": "setPeer(uint32,bytes32)",
      "arguments": [
        "30184",
        "0x000000000000000000000000f89eab4a9a4c87d4a40e1e4e325c3cda985b0b26"
      ],
      "transaction": {
        "from": "0x0ece75f3c36f7df2136dac7633165dbff53de3cd",
        "to": "0xf89eab4a9a4c87d4a40e1e4e325c3cda985b0b26",
        "gas": "0x9965",
        "value": "0x0",
        "input": "0x3400288b00000000000000000000000000000000000000000000000000000000000075e8000000000000000000000000f89eab4a9a4c87d4a40e1e4e325c3cda985b0b26",
        "nonce": "0x231",
        "chainId": "0x2105"
      },
      "additionalContracts": [],
      "isFixedGasLimit": false
    }
  ],
  "receipts": [
    {
      "status": "0x1",
      "cumulativeGasUsed": "0x19303e4",
      "logs": [
        {
          "address": "0xf89eab4a9a4c87d4a40e1e4e325c3cda985b0b26",
          "topics": [
            "0x238399d427b947898edb290f5ff0f9109849b1c3ba196a42e35f00c50a54b98b"
          ],
          "data": "0x00000000000000000000000000000000000000000000000000000000000075ae00000000000000000000000095608557eb1fa88d07fb6af29fcb76b25a93bb2c",
          "blockHash": "0x3d9751e92d3abf11f687e49f52e2001efd1b170bf05f738b906883675e5fb1cc",
          "blockNumber": "0x229a23c",
          "blockTimestamp": "0x68dda15b",
          "transactionHash": "0xa0e3ff766e5d19f948300514cbb8005157408c6faec7f14da91b6a867fb50076",
          "transactionIndex": "0x58",
          "logIndex": "0x212",
          "removed": false
        }
      ],
      "logsBloom": "0x00000000000000000000000000000000000000000000000000000000000000000000000000000000000000000000000000000000000000000800000000000000000000000000000000000000000000040000000000000000000000000000000000100000000000000000000000000000000000000000000000000000000000000000000000000000000000000000000000000000000000000000000000000000000000000000000000000000000000000000000000000000000002000000000000000000000000000000000000000000000000200000000000040000000000000000000000000000000000000000000000000000000000000000000000000000",
      "type": "0x2",
      "transactionHash": "0xa0e3ff766e5d19f948300514cbb8005157408c6faec7f14da91b6a867fb50076",
      "transactionIndex": "0x58",
      "blockHash": "0x3d9751e92d3abf11f687e49f52e2001efd1b170bf05f738b906883675e5fb1cc",
      "blockNumber": "0x229a23c",
      "gasUsed": "0x79ff",
      "effectiveGasPrice": "0x22782a",
      "from": "0x0ece75f3c36f7df2136dac7633165dbff53de3cd",
      "to": "0xf89eab4a9a4c87d4a40e1e4e325c3cda985b0b26",
      "contractAddress": null,
      "l1BaseFeeScalar": "0x8dd",
      "l1BlobBaseFee": "0x1",
      "l1BlobBaseFeeScalar": "0x101c12",
      "l1Fee": "0x30b1949b",
      "l1GasPrice": "0xd69aa58",
      "l1GasUsed": "0x640"
    },
    {
      "status": "0x1",
      "cumulativeGasUsed": "0x19372f3",
      "logs": [
        {
          "address": "0xf89eab4a9a4c87d4a40e1e4e325c3cda985b0b26",
          "topics": [
            "0x238399d427b947898edb290f5ff0f9109849b1c3ba196a42e35f00c50a54b98b"
          ],
          "data": "0x00000000000000000000000000000000000000000000000000000000000075e8000000000000000000000000f89eab4a9a4c87d4a40e1e4e325c3cda985b0b26",
          "blockHash": "0x3d9751e92d3abf11f687e49f52e2001efd1b170bf05f738b906883675e5fb1cc",
          "blockNumber": "0x229a23c",
          "blockTimestamp": "0x68dda15b",
          "transactionHash": "0x1e1a754fd8af31e2b094689d13f466008530cdde273c944780ddcbc473c9aa65",
          "transactionIndex": "0x59",
          "logIndex": "0x213",
          "removed": false
        }
      ],
      "logsBloom": "0x00000000000000000000000000000000000000000000000000000000000000000000000000000000000000000000000000000000000000000800000000000000000000000000000000000000000000040000000000000000000000000000000000100000000000000000000000000000000000000000000000000000000000000000000000000000000000000000000000000000000000000000000000000000000000000000000000000000000000000000000000000000000002000000000000000000000000000000000000000000000000200000000000040000000000000000000000000000000000000000000000000000000000000000000000000000",
      "type": "0x2",
      "transactionHash": "0x1e1a754fd8af31e2b094689d13f466008530cdde273c944780ddcbc473c9aa65",
      "transactionIndex": "0x59",
      "blockHash": "0x3d9751e92d3abf11f687e49f52e2001efd1b170bf05f738b906883675e5fb1cc",
      "blockNumber": "0x229a23c",
      "gasUsed": "0x6f0f",
      "effectiveGasPrice": "0x22782a",
      "from": "0x0ece75f3c36f7df2136dac7633165dbff53de3cd",
      "to": "0xf89eab4a9a4c87d4a40e1e4e325c3cda985b0b26",
      "contractAddress": null,
      "l1BaseFeeScalar": "0x8dd",
      "l1BlobBaseFee": "0x1",
      "l1BlobBaseFeeScalar": "0x101c12",
      "l1Fee": "0x30b1949b",
      "l1GasPrice": "0xd69aa58",
      "l1GasUsed": "0x640"
    }
  ],
  "libraries": [],
  "pending": [],
  "returns": {},
  "timestamp": 1759355228078,
  "chain": 8453,
  "commit": "f83972d"
}