{
  "transactions": [
    {
      "hash": "0xc766a2cbb4483757c47a02fe1ae2a7bee5c4564bec0198759cebf24089220998",
      "transactionType": "CALL",
      "contractName": null,
      "contractAddress": "0xe19784dd55e2d7b610b53b5379eff878c75a7cd4",
      "function": "mint(address,uint256)",
      "arguments": [
        "0x0EcE75f3C36f7Df2136Dac7633165DBff53dE3CD",
        "100000000000000000000000"
      ],
      "transaction": {
        "from": "0x0ece75f3c36f7df2136dac7633165dbff53de3cd",
        "to": "0xe19784dd55e2d7b610b53b5379eff878c75a7cd4",
        "gas": "0xd6e1",
        "value": "0x0",
        "input": "0x40c10f190000000000000000000000000ece75f3c36f7df2136dac7633165dbff53de3cd00000000000000000000000000000000000000000000152d02c7e14af6800000",
        "nonce": "0x57",
        "chainId": "0x504"
      },
      "additionalContracts": [],
      "isFixedGasLimit": false
    }
  ],
  "receipts": [
    {
      "status": "0x1",
      "cumulativeGasUsed": "0x6a818",
      "logs": [
        {
          "address": "0xe19784dd55e2d7b610b53b5379eff878c75a7cd4",
          "topics": [
            "0xddf252ad1be2c89b69c2b068fc378daa952ba7f163c4a11628f55a4df523b3ef",
            "0x0000000000000000000000000000000000000000000000000000000000000000",
            "0x0000000000000000000000000ece75f3c36f7df2136dac7633165dbff53de3cd"
          ],
          "data": "0x00000000000000000000000000000000000000000000152d02c7e14af6800000",
          "blockHash": "0x8ae4a8fc038ffd2618afb9e4aabc8b80f6aaef728c477d5d42a46a4a87e796d0",
          "blockNumber": "0xc374bc",
          "transactionHash": "0xc766a2cbb4483757c47a02fe1ae2a7bee5c4564bec0198759cebf24089220998",
          "transactionIndex": "0x1",
          "logIndex": "0x1",
          "removed": false
        }
      ],
      "logsBloom": "0x0000000000000000000000000000000000000000000000000000000000000000000000000000000000000000000000000000000000000000000000000000000000000000000000000000000a000000000000000000000000000000000000000000000000020000000000000000000800000000000000200000000010000000000000000000000000000000000000000000000000000000000000000000000000000000000000000000000800000000000000000000000000000000000000000000000002000000000000000000000000000000000000001000000000000020080000000000200000000000000000000000000000000000000000000000000000",
      "type": "0x2",
      "transactionHash": "0xc766a2cbb4483757c47a02fe1ae2a7bee5c4564bec0198759cebf24089220998",
      "transactionIndex": "0x1",
      "blockHash": "0x8ae4a8fc038ffd2618afb9e4aabc8b80f6aaef728c477d5d42a46a4a87e796d0",
      "blockNumber": "0xc374bc",
      "gasUsed": "0x9a38",
      "effectiveGasPrice": "0x746a52881",
      "from": "0x0ece75f3c36f7df2136dac7633165dbff53de3cd",
      "to": "0xe19784dd55e2d7b610b53b5379eff878c75a7cd4",
      "contractAddress": null
    }
  ],
  "libraries": [],
  "pending": [],
  "returns": {},
  "timestamp": 1759360952598,
  "chain": 1284,
  "commit": "d7e33b7"
}