{
  "transactions": [
    {
      "hash": "0xa26a4761b63d2dc7b98eec440033fb5b4abf6ad651d297057741ba4273c52c2f",
      "transactionType": "CALL",
      "contractName": null,
      "contractAddress": "0x1a44076050125825900e736c501f859c50fe728c",
      "function": "setSendLibrary(address,uint32,address)",
      "arguments": [
        "0x95608557Eb1fa88D07fB6Af29FcB76b25A93bB2c",
        "30126",
        "0xeac136456d078bB76f59DCcb2d5E008b31AfE1cF"
      ],
      "transaction": {
        "from": "0x0ece75f3c36f7df2136dac7633165dbff53de3cd",
        "to": "0x1a44076050125825900e736c501f859c50fe728c",
        "gas": "0x83bbb",
        "value": "0x0",
        "input": "0x9535ff3000000000000000000000000095608557eb1fa88d07fb6af29fcb76b25a93bb2c00000000000000000000000000000000000000000000000000000000000075ae000000000000000000000000eac136456d078bb76f59dccb2d5e008b31afe1cf",
        "nonce": "0x47",
        "chainId": "0x504"
      },
      "additionalContracts": [],
      "isFixedGasLimit": false
    },
    {
      "hash": "0xd2460c00356f7f21ff2942e88e3c0f9483fd37b3bbb24a9bf4aa8acbebbef6fb",
      "transactionType": "CALL",
      "contractName": null,
      "contractAddress": "0x1a44076050125825900e736c501f859c50fe728c",
      "function": "setReceiveLibrary(address,uint32,address,uint256)",
      "arguments": [
        "0x95608557Eb1fa88D07fB6Af29FcB76b25A93bB2c",
        "30126",
        "0x2F4C6eeA955e95e6d65E08620D980C0e0e92211F",
        "0"
      ],
      "transaction": {
        "from": "0x0ece75f3c36f7df2136dac7633165dbff53de3cd",
        "to": "0x1a44076050125825900e736c501f859c50fe728c",
        "gas": "0x65207",
        "value": "0x0",
        "input": "0x6a14d71500000000000000000000000095608557eb1fa88d07fb6af29fcb76b25a93bb2c00000000000000000000000000000000000000000000000000000000000075ae0000000000000000000000002f4c6eea955e95e6d65e08620d980c0e0e92211f0000000000000000000000000000000000000000000000000000000000000000",
        "nonce": "0x48",
        "chainId": "0x504"
      },
      "additionalContracts": [],
      "isFixedGasLimit": false
    }
  ],
  "receipts": [
    {
      "status": "0x1",
      "cumulativeGasUsed": "0x7f806",
      "logs": [
        {
          "address": "0x1a44076050125825900e736c501f859c50fe728c",
          "topics": [
            "0x4cff966ebee29a156dcb34cf72c1d06231fb1777f6bdf6e8089819232f002b1c"
          ],
          "data": "0x00000000000000000000000095608557eb1fa88d07fb6af29fcb76b25a93bb2c00000000000000000000000000000000000000000000000000000000000075ae000000000000000000000000eac136456d078bb76f59dccb2d5e008b31afe1cf",
          "blockHash": "0x8b9449ed09c9fa1a538e8cca32ccfdf646ff4f923a05cb0c82a4e62273bd4cb9",
          "blockNumber": "0xc37094",
          "transactionHash": "0xa26a4761b63d2dc7b98eec440033fb5b4abf6ad651d297057741ba4273c52c2f",
          "transactionIndex": "0x2",
          "logIndex": "0x1",
          "removed": false
        }
      ],
      "logsBloom": "0x00000000000000000000000000000000000200000000000000000000001000000000000000000000000000000000000000000000000000000000000001000000000000000000000000000000000000000000000000000000000000000000000000000000000000000000000000000000000000000010000000000000000000000000000000000000000000000000000000000000000000000000000000000000000000000000000000000000000000000000000000000000000000000000000000000000000000000000000000000000000000000000000000000000000000000040000000000000000000000000000000000000010000000000000000000000",
      "type": "0x2",
      "transactionHash": "0xa26a4761b63d2dc7b98eec440033fb5b4abf6ad651d297057741ba4273c52c2f",
      "transactionIndex": "0x2",
      "blockHash": "0x8b9449ed09c9fa1a538e8cca32ccfdf646ff4f923a05cb0c82a4e62273bd4cb9",
      "blockNumber": "0xc37094",
      "gasUsed": "0x5f000",
      "effectiveGasPrice": "0x7823ff280",
      "from": "0x0ece75f3c36f7df2136dac7633165dbff53de3cd",
      "to": "0x1a44076050125825900e736c501f859c50fe728c",
      "contractAddress": null
    },
    {
      "status": "0x1",
      "cumulativeGasUsed": "0x482b8",
      "logs": [
        {
          "address": "0x1a44076050125825900e736c501f859c50fe728c",
          "topics": [
            "0xcd6f92f5ac6185a5acfa02c92090746cec64d777269cbcd0ed031e396657a1c2"
          ],
          "data": "0x00000000000000000000000095608557eb1fa88d07fb6af29fcb76b25a93bb2c00000000000000000000000000000000000000000000000000000000000075ae0000000000000000000000002f4c6eea955e95e6d65e08620d980c0e0e92211f",
          "blockHash": "0xeea879df33cc6c92f37d9b801adc7043ffbb6eb40732b8dbf9f23208c0470984",
          "blockNumber": "0xc37096",
          "transactionHash": "0xd2460c00356f7f21ff2942e88e3c0f9483fd37b3bbb24a9bf4aa8acbebbef6fb",
          "transactionIndex": "0x0",
          "logIndex": "0x0",
          "removed": false
        },
        {
          "address": "0x1a44076050125825900e736c501f859c50fe728c",
          "topics": [
            "0x4e0a5bbfa0c11a64effb1ada324b5437a17272e1aed9320398715ef71bb20928"
          ],
          "data": "0x00000000000000000000000095608557eb1fa88d07fb6af29fcb76b25a93bb2c00000000000000000000000000000000000000000000000000000000000075ae00000000000000000000000000000000000000000000000000000000000000000000000000000000000000000000000000000000000000000000000000000000",
          "blockHash": "0xeea879df33cc6c92f37d9b801adc7043ffbb6eb40732b8dbf9f23208c0470984",
          "blockNumber": "0xc37096",
          "transactionHash": "0xd2460c00356f7f21ff2942e88e3c0f9483fd37b3bbb24a9bf4aa8acbebbef6fb",
          "transactionIndex": "0x0",
          "logIndex": "0x1",
          "removed": false
        }
      ],
      "logsBloom": "0x00000000000000000000020800000000000000000000000000000000001000020400000000000000000000000000000000000000000000000000000000000000000000000000000000000000000000000000000000800000000000000000000000000000000000000000000000000000000000000010000000000000000000100000000000000000000000000000000000000000000000000000000000000000000000000000000000000000000000000000000000000000000000000000000000000000000000000000000000000000000000000000000000000000000000000000000000000000000000000000000000000000010000000000000000000000",
      "type": "0x2",
      "transactionHash": "0xd2460c00356f7f21ff2942e88e3c0f9483fd37b3bbb24a9bf4aa8acbebbef6fb",
      "transactionIndex": "0x0",
      "blockHash": "0xeea879df33cc6c92f37d9b801adc7043ffbb6eb40732b8dbf9f23208c0470984",
      "blockNumber": "0xc37096",
      "gasUsed": "0x482b8",
      "effectiveGasPrice": "0x7823ff280",
      "from": "0x0ece75f3c36f7df2136dac7633165dbff53de3cd",
      "to": "0x1a44076050125825900e736c501f859c50fe728c",
      "contractAddress": null
    }
  ],
  "libraries": [],
  "pending": [],
  "returns": {},
  "timestamp": 1759353541969,
  "chain": 1284,
  "commit": "f83972d"
}