{
  "transactions": [
    {
      "hash": "0xa8b702720a7823e86ce8ae303c459b80e3c51b5f5509096a855e59f16705fc59",
      "transactionType": "CALL",
      "contractName": null,
      "contractAddress": "0x46638ad472507482b7d5ba45124e93d16bc97ece",
      "function": "setOftAddress(address,address)",
      "arguments": [
        "0x32822138bc93390f236B4a629EA793dE12b92d19",
        "0x95608557Eb1fa88D07fB6Af29FcB76b25A93bB2c"
      ],
      "transaction": {
        "from": "0x0ece75f3c36f7df2136dac7633165dbff53de3cd",
        "to": "0x46638ad472507482b7d5ba45124e93d16bc97ece",
        "gas": "0x247bb",
        "value": "0x0",
        "input": "0xf09a0d6b00000000000000000000000032822138bc93390f236b4a629ea793de12b92d1900000000000000000000000095608557eb1fa88d07fb6af29fcb76b25a93bb2c",
        "nonce": "0x4e",
        "chainId": "0x504"
      },
      "additionalContracts": [],
      "isFixedGasLimit": false
    }
  ],
  "receipts": [
    {
      "status": "0x1",
      "cumulativeGasUsed": "0x1b768",
      "logs": [
        {
          "address": "0x46638ad472507482b7d5ba45124e93d16bc97ece",
          "topics": [
            "0x443eca89ae0d91090321746b66b1e5a800bf4f33b317a7dbc01dc310b55c3291",
            "0x00000000000000000000000032822138bc93390f236b4a629ea793de12b92d19",
            "0x00000000000000000000000095608557eb1fa88d07fb6af29fcb76b25a93bb2c"
          ],
          "data": "0x",
          "blockHash": "0x101c690a6e86eb8c518a0a51ce647b8f6545cd0d51b3ab4265c5604eb6a69e00",
          "blockNumber": "0xc371b9",
          "transactionHash": "0xa8b702720a7823e86ce8ae303c459b80e3c51b5f5509096a855e59f16705fc59",
          "transactionIndex": "0x0",
          "logIndex": "0x0",
          "removed": false
        }
      ],
      "logsBloom": "0x00400000000000000000000000000000000000000000000000000000000000000000000000000000020000000000000000000000000000000000000000000000001000000000000000000000000000000000000000000000000800000000000000000000000000000000000000000000010000000000000000000000000000000000000000000000000000000000000000004400000800000000000000000000000000000000000000000000000000000000100000000000000000000002000000000000000000000000000000000000000000000000000000000000000000000020000000000000000000000000000000000000080000000000000000000000",
      "type": "0x2",
      "transactionHash": "0xa8b702720a7823e86ce8ae303c459b80e3c51b5f5509096a855e59f16705fc59",
      "transactionIndex": "0x0",
      "blockHash": "0x101c690a6e86eb8c518a0a51ce647b8f6545cd0d51b3ab4265c5604eb6a69e00",
      "blockNumber": "0xc371b9",
      "gasUsed": "0x1b768",
      "effectiveGasPrice": "0x10e1563500",
      "from": "0x0ece75f3c36f7df2136dac7633165dbff53de3cd",
      "to": "0x46638ad472507482b7d5ba45124e93d16bc97ece",
      "contractAddress": null
    }
  ],
  "libraries": [],
  "pending": [],
  "returns": {},
  "timestamp": 1759355485536,
  "chain": 1284,
  "commit": "f83972d"
}