{
  "transactions": [
    {
      "hash": "0x350a9e08ecfb51685ef2922bd84fc1ae0206b1869e7ffa9fa6ce936cf5c40de8",
      "transactionType": "CALL",
      "contractName": null,
      "contractAddress": "0xae1b8d3b428d6a8f62df2f623081eac8734168fe",
      "function": "setPeer(uint32,bytes32)",
      "arguments": [
        "0",
        "0x000000000000000000000000f89eab4a9a4c87d4a40e1e4e325c3cda985b0b26"
      ],
      "transaction": {
        "from": "0x0ece75f3c36f7df2136dac7633165dbff53de3cd",
        "to": "0xae1b8d3b428d6a8f62df2f623081eac8734168fe",
        "gas": "0x337fc",
        "value": "0x0",
        "input": "0x3400288b0000000000000000000000000000000000000000000000000000000000000000000000000000000000000000f89eab4a9a4c87d4a40e1e4e325c3cda985b0b26",
        "nonce": "0x3e",
        "chainId": "0x504"
      },
      "additionalContracts": [],
      "isFixedGasLimit": false
    },
    {
      "hash": "0xb9893e527cdb52063a00a47cd9eb25df00fe37821ef651d072d0d8e6414981ad",
      "transactionType": "CALL",
      "contractName": null,
      "contractAddress": "0xae1b8d3b428d6a8f62df2f623081eac8734168fe",
      "function": "setPeer(uint32,bytes32)",
      "arguments": [
        "0",
        "0x000000000000000000000000ae1b8d3b428d6a8f62df2f623081eac8734168fe"
      ],
      "transaction": {
        "from": "0x0ece75f3c36f7df2136dac7633165dbff53de3cd",
        "to": "0xae1b8d3b428d6a8f62df2f623081eac8734168fe",
        "gas": "0x337fc",
        "value": "0x0",
        "input": "0x3400288b0000000000000000000000000000000000000000000000000000000000000000000000000000000000000000ae1b8d3b428d6a8f62df2f623081eac8734168fe",
        "nonce": "0x3f",
        "chainId": "0x504"
      },
      "additionalContracts": [],
      "isFixedGasLimit": false
    }
  ],
  "receipts": [
    {
      "status": "0x1",
      "cumulativeGasUsed": "0x27708",
      "logs": [
        {
          "address": "0xae1b8d3b428d6a8f62df2f623081eac8734168fe",
          "topics": [
            "0x238399d427b947898edb290f5ff0f9109849b1c3ba196a42e35f00c50a54b98b"
          ],
          "data": "0x0000000000000000000000000000000000000000000000000000000000000000000000000000000000000000f89eab4a9a4c87d4a40e1e4e325c3cda985b0b26",
          "blockHash": "0x7d8ac6c2883f2bff763235fc69f4673e57d586d87fd54b70916ff4d3363b9daa",
          "blockNumber": "0xc3667c",
          "transactionHash": "0x350a9e08ecfb51685ef2922bd84fc1ae0206b1869e7ffa9fa6ce936cf5c40de8",
          "transactionIndex": "0x0",
          "logIndex": "0x0",
          "removed": false
        }
      ],
      "logsBloom": "0x00000000000000000000000000000000000000000000000000000000000000000000000000000000000000000000000000000000000000000800000000000000020000000000000000000000000000000000000000000000000000000000000000000000000000000000000000000000000000000000000000000000000000000000002000040000000000000000000000000000000000000000000000000000000000000000000000000000000000000000000000000000000002000000000000000000000000000000000000000000000000000000000000040000000000000000000000000000000000000000000000000000000000000000000000000000",
      "type": "0x2",
      "transactionHash": "0x350a9e08ecfb51685ef2922bd84fc1ae0206b1869e7ffa9fa6ce936cf5c40de8",
      "transactionIndex": "0x0",
      "blockHash": "0x7d8ac6c2883f2bff763235fc69f4673e57d586d87fd54b70916ff4d3363b9daa",
      "blockNumber": "0xc3667c",
      "gasUsed": "0x27708",
      "effectiveGasPrice": "0x7a00d5780",
      "from": "0x0ece75f3c36f7df2136dac7633165dbff53de3cd",
      "to": "0xae1b8d3b428d6a8f62df2f623081eac8734168fe",
      "contractAddress": null
    },
    {
      "status": "0x1",
      "cumulativeGasUsed": "0x27708",
      "logs": [
        {
          "address": "0xae1b8d3b428d6a8f62df2f623081eac8734168fe",
          "topics": [
            "0x238399d427b947898edb290f5ff0f9109849b1c3ba196a42e35f00c50a54b98b"
          ],
          "data": "0x0000000000000000000000000000000000000000000000000000000000000000000000000000000000000000ae1b8d3b428d6a8f62df2f623081eac8734168fe",
          "blockHash": "0x67be5255737bf4a13ddf9a08bc7e036089a81c4f9082e6d046004c56d37fa1a3",
          "blockNumber": "0xc3667d",
          "transactionHash": "0xb9893e527cdb52063a00a47cd9eb25df00fe37821ef651d072d0d8e6414981ad",
          "transactionIndex": "0x0",
          "logIndex": "0x0",
          "removed": false
        }
      ],
      "logsBloom": "0x00000000000000000000000000000000000000000000000000000000000000000000000000000000000000000000000000000000000000000800000000000000020000000000000000000000000000000000000000000000000000000000000000000000000000000000000000000000000000000000000000000000000000000000002000040000000000000000000000000000000000000000000000000000000000000000000000000000000000000000000000000000000002000000000000000000000000000000000000000000000000000000000000040000000000000000000000000000000000000000000000000000000000000000000000000000",
      "type": "0x2",
      "transactionHash": "0xb9893e527cdb52063a00a47cd9eb25df00fe37821ef651d072d0d8e6414981ad",
      "transactionIndex": "0x0",
      "blockHash": "0x67be5255737bf4a13ddf9a08bc7e036089a81c4f9082e6d046004c56d37fa1a3",
      "blockNumber": "0xc3667d",
      "gasUsed": "0x27708",
      "effectiveGasPrice": "0x7a00d5780",
      "from": "0x0ece75f3c36f7df2136dac7633165dbff53de3cd",
      "to": "0xae1b8d3b428d6a8f62df2f623081eac8734168fe",
      "contractAddress": null
    }
  ],
  "libraries": [],
  "pending": [],
  "returns": {},
  "timestamp": 1759335253787,
  "chain": 1284,
  "commit": "ece6b94"
}