{
  "transactions": [
    {
      "hash": "0xfe1d79e1614ad67612b95c9dbd1437c49f54ac44ddc93408b7f1f70cd66aa1f4",
      "transactionType": "CALL",
      "contractName": null,
      "contractAddress": "0x1a44076050125825900e736c501f859c50fe728c",
      "function": "setConfig(address,address,(uint32,uint32,bytes)[])",
      "arguments": [
        "0x95608557Eb1fa88D07fB6Af29FcB76b25A93bB2c",
        "0xeac136456d078bB76f59DCcb2d5E008b31AfE1cF",
        "[(30126, 1, 0x0000000000000000000000000000000000000000000000000000000000002710000000000000000000000000ec0906949f88f72bf9206e84764163e24a56a499), (30126, 2, 0x0000000000000000000000000000000000000000000000000000000000000020000000000000000000000000000000000000000000000000000000000000000f000000000000000000000000000000000000000000000000000000000000000200000000000000000000000000000000000000000000000000000000000000ff000000000000000000000000000000000000000000000000000000000000000000000000000000000000000000000000000000000000000000000000000000c00000000000000000000000000000000000000000000000000000000000000120000000000000000000000000000000000000000000000000000000000000000200000000000000000000000033e5fcc13d7439cc62d54c41aa966197145b3cd700000000000000000000000034730f2570e6cff8b1c91faabf37d0dd917c43670000000000000000000000000000000000000000000000000000000000000000), (30184, 1, 0x0000000000000000000000000000000000000000000000000000000000002710000000000000000000000000ec0906949f88f72bf9206e84764163e24a56a499), (30184, 2, 0x0000000000000000000000000000000000000000000000000000000000000020000000000000000000000000000000000000000000000000000000000000000f000000000000000000000000000000000000000000000000000000000000000200000000000000000000000000000000000000000000000000000000000000ff000000000000000000000000000000000000000000000000000000000000000000000000000000000000000000000000000000000000000000000000000000c00000000000000000000000000000000000000000000000000000000000000120000000000000000000000000000000000000000000000000000000000000000200000000000000000000000033e5fcc13d7439cc62d54c41aa966197145b3cd700000000000000000000000034730f2570e6cff8b1c91faabf37d0dd917c43670000000000000000000000000000000000000000000000000000000000000000)]"
      ],
      "transaction": {
        "from": "0x0ece75f3c36f7df2136dac7633165dbff53de3cd",
        "to": "0x1a44076050125825900e736c501f859c50fe728c",
        "gas": "0x8f552",
        "value": "0x0",
        "input": "0x6dbd9f9000000000000000000000000095608557eb1fa88d07fb6af29fcb76b25a93bb2c000000000000000000000000eac136456d078bb76f59dccb2d5e008b31afe1cf0000000000000000000000000000000000000000000000000000000000000060000000000000000000000000000000000000000000000000000000000000000400000000000000000000000000000000000000000000000000000000000000800000000000000000000000000000000000000000000000000000000000000140000000000000000000000000000000000000000000000000000000000000032000000000000000000000000000000000000000000000000000000000000003e000000000000000000000000000000000000000000000000000000000000075ae0000000000000000000000000000000000000000000000000000000000000001000000000000000000000000000000000000000000000000000000000000006000000000000000000000000000000000000000000000000000000000000000400000000000000000000000000000000000000000000000000000000000002710000000000000000000000000ec0906949f88f72bf9206e84764163e24a56a49900000000000000000000000000000000000000000000000000000000000075ae0000000000000000000000000000000000000000000000000000000000000002000000000000000000000000000000000000000000000000000000000000006000000000000000000000000000000000000000000000000000000000000001600000000000000000000000000000000000000000000000000000000000000020000000000000000000000000000000000000000000000000000000000000000f000000000000000000000000000000000000000000000000000000000000000200000000000000000000000000000000000000000000000000000000000000ff000000000000000000000000000000000000000000000000000000000000000000000000000000000000000000000000000000000000000000000000000000c00000000000000000000000000000000000000000000000000000000000000120000000000000000000000000000000000000000000000000000000000000000200000000000000000000000033e5fcc13d7439cc62d54c41aa966197145b3cd700000000000000000000000034730f2570e6cff8b1c91faabf37d0dd917c4367000000000000000000000000000000000000000000000000000000000000000000000000000000000000000000000000000000000000000000000000000075e80000000000000000000000000000000000000000000000000000000000000001000000000000000000000000000000000000000000000000000000000000006000000000000000000000000000000000000000000000000000000000000000400000000000000000000000000000000000000000000000000000000000002710000000000000000000000000ec0906949f88f72bf9206e84764163e24a56a49900000000000000000000000000000000000000000000000000000000000075e80000000000000000000000000000000000000000000000000000000000000002000000000000000000000000000000000000000000000000000000000000006000000000000000000000000000000000000000000000000000000000000001600000000000000000000000000000000000000000000000000000000000000020000000000000000000000000000000000000000000000000000000000000000f000000000000000000000000000000000000000000000000000000000000000200000000000000000000000000000000000000000000000000000000000000ff000000000000000000000000000000000000000000000000000000000000000000000000000000000000000000000000000000000000000000000000000000c00000000000000000000000000000000000000000000000000000000000000120000000000000000000000000000000000000000000000000000000000000000200000000000000000000000033e5fcc13d7439cc62d54c41aa966197145b3cd700000000000000000000000034730f2570e6cff8b1c91faabf37d0dd917c43670000000000000000000000000000000000000000000000000000000000000000",
        "nonce": "0x49",
        "chainId": "0x504"
      },
      "additionalContracts": [],
      "isFixedGasLimit": false
    },
    {
      "hash": "0xfd7f74ad46f345b739e45bd153a608ab3741319cf82ca95955c21b01c458ad2e",
      "transactionType": "CALL",
      "contractName": null,
      "contractAddress": "0x1a44076050125825900e736c501f859c50fe728c",
      "function": "setConfig(address,address,(uint32,uint32,bytes)[])",
      "arguments": [
        "0x95608557Eb1fa88D07fB6Af29FcB76b25A93bB2c",
        "0x2F4C6eeA955e95e6d65E08620D980C0e0e92211F",
        "[(30126, 2, 0x0000000000000000000000000000000000000000000000000000000000000020000000000000000000000000000000000000000000000000000000000000000f000000000000000000000000000000000000000000000000000000000000000200000000000000000000000000000000000000000000000000000000000000ff000000000000000000000000000000000000000000000000000000000000000000000000000000000000000000000000000000000000000000000000000000c00000000000000000000000000000000000000000000000000000000000000120000000000000000000000000000000000000000000000000000000000000000200000000000000000000000033e5fcc13d7439cc62d54c41aa966197145b3cd700000000000000000000000034730f2570e6cff8b1c91faabf37d0dd917c43670000000000000000000000000000000000000000000000000000000000000000), (30184, 2, 0x0000000000000000000000000000000000000000000000000000000000000020000000000000000000000000000000000000000000000000000000000000000f000000000000000000000000000000000000000000000000000000000000000200000000000000000000000000000000000000000000000000000000000000ff000000000000000000000000000000000000000000000000000000000000000000000000000000000000000000000000000000000000000000000000000000c00000000000000000000000000000000000000000000000000000000000000120000000000000000000000000000000000000000000000000000000000000000200000000000000000000000033e5fcc13d7439cc62d54c41aa966197145b3cd700000000000000000000000034730f2570e6cff8b1c91faabf37d0dd917c43670000000000000000000000000000000000000000000000000000000000000000)]"
      ],
      "transaction": {
        "from": "0x0ece75f3c36f7df2136dac7633165dbff53de3cd",
        "to": "0x1a44076050125825900e736c501f859c50fe728c",
        "gas": "0x738a7",
        "value": "0x0",
        "input": "0x6dbd9f9000000000000000000000000095608557eb1fa88d07fb6af29fcb76b25a93bb2c0000000000000000000000002f4c6eea955e95e6d65e08620d980c0e0e92211f000000000000000000000000000000000000000000000000000000000000006000000000000000000000000000000000000000000000000000000000000000020000000000000000000000000000000000000000000000000000000000000040000000000000000000000000000000000000000000000000000000000000022000000000000000000000000000000000000000000000000000000000000075ae0000000000000000000000000000000000000000000000000000000000000002000000000000000000000000000000000000000000000000000000000000006000000000000000000000000000000000000000000000000000000000000001600000000000000000000000000000000000000000000000000000000000000020000000000000000000000000000000000000000000000000000000000000000f000000000000000000000000000000000000000000000000000000000000000200000000000000000000000000000000000000000000000000000000000000ff000000000000000000000000000000000000000000000000000000000000000000000000000000000000000000000000000000000000000000000000000000c00000000000000000000000000000000000000000000000000000000000000120000000000000000000000000000000000000000000000000000000000000000200000000000000000000000033e5fcc13d7439cc62d54c41aa966197145b3cd700000000000000000000000034730f2570e6cff8b1c91faabf37d0dd917c4367000000000000000000000000000000000000000000000000000000000000000000000000000000000000000000000000000000000000000000000000000075e80000000000000000000000000000000000000000000000000000000000000002000000000000000000000000000000000000000000000000000000000000006000000000000000000000000000000000000000000000000000000000000001600000000000000000000000000000000000000000000000000000000000000020000000000000000000000000000000000000000000000000000000000000000f000000000000000000000000000000000000000000000000000000000000000200000000000000000000000000000000000000000000000000000000000000ff000000000000000000000000000000000000000000000000000000000000000000000000000000000000000000000000000000000000000000000000000000c00000000000000000000000000000000000000000000000000000000000000120000000000000000000000000000000000000000000000000000000000000000200000000000000000000000033e5fcc13d7439cc62d54c41aa966197145b3cd700000000000000000000000034730f2570e6cff8b1c91faabf37d0dd917c43670000000000000000000000000000000000000000000000000000000000000000",
        "nonce": "0x4a",
        "chainId": "0x504"
      },
      "additionalContracts": [],
      "isFixedGasLimit": false
    },
    {
      "hash": "0x8c86b7fa52897a1dfae2c79968ae05f455616dcec6d6255124e8acce3b57d99c",
      "transactionType": "CALL",
      "contractName": null,
      "contractAddress": "0x95608557eb1fa88d07fb6af29fcb76b25a93bb2c",
      "function": "setPeer(uint32,bytes32)",
      "arguments": [
        "30184",
        "0x000000000000000000000000f89eab4a9a4c87d4a40e1e4e325c3cda985b0b26"
      ],
      "transaction": {
        "from": "0x0ece75f3c36f7df2136dac7633165dbff53de3cd",
        "to": "0x95608557eb1fa88d07fb6af29fcb76b25a93bb2c",
        "gas": "0x337fc",
        "value": "0x0",
        "input": "0x3400288b00000000000000000000000000000000000000000000000000000000000075e8000000000000000000000000f89eab4a9a4c87d4a40e1e4e325c3cda985b0b26",
        "nonce": "0x4b",
        "chainId": "0x504"
      },
      "additionalContracts": [],
      "isFixedGasLimit": false
    },
    {
      "hash": "0xc9280ed41e8db2589e79578ad97bd87ac36ef345481c99f627138efd8de8894f",
      "transactionType": "CALL",
      "contractName": null,
      "contractAddress": "0x95608557eb1fa88d07fb6af29fcb76b25a93bb2c",
      "function": "setPeer(uint32,bytes32)",
      "arguments": [
        "30126",
        "0x00000000000000000000000095608557eb1fa88d07fb6af29fcb76b25a93bb2c"
      ],
      "transaction": {
        "from": "0x0ece75f3c36f7df2136dac7633165dbff53de3cd",
        "to": "0x95608557eb1fa88d07fb6af29fcb76b25a93bb2c",
        "gas": "0x337fc",
        "value": "0x0",
        "input": "0x3400288b00000000000000000000000000000000000000000000000000000000000075ae00000000000000000000000095608557eb1fa88d07fb6af29fcb76b25a93bb2c",
        "nonce": "0x4c",
        "chainId": "0x504"
      },
      "additionalContracts": [],
      "isFixedGasLimit": false
    },
    {
      "hash": "0xbb1e99c9befa8aeaf496c5d1b310e76070288b6a24e3dfa675eeeaedfbfcc5e1",
      "transactionType": "CALL",
      "contractName": null,
      "contractAddress": "0x95608557eb1fa88d07fb6af29fcb76b25a93bb2c",
      "function": "setEnforcedOptions((uint32,uint16,bytes)[])",
      "arguments": [
        "[(30126, 1, 0x00030100110100000000000000000000000000013880), (30184, 1, 0x000301001101000000000000000000000000000186a0)]"
      ],
      "transaction": {
        "from": "0x0ece75f3c36f7df2136dac7633165dbff53de3cd",
        "to": "0x95608557eb1fa88d07fb6af29fcb76b25a93bb2c",
        "gas": "0x3495e",
        "value": "0x0",
        "input": "0xb98bd07000000000000000000000000000000000000000000000000000000000000000200000000000000000000000000000000000000000000000000000000000000002000000000000000000000000000000000000000000000000000000000000004000000000000000000000000000000000000000000000000000000000000000e000000000000000000000000000000000000000000000000000000000000075ae000000000000000000000000000000000000000000000000000000000000000100000000000000000000000000000000000000000000000000000000000000600000000000000000000000000000000000000000000000000000000000000016000301001101000000000000000000000000000138800000000000000000000000000000000000000000000000000000000000000000000000000000000075e8000000000000000000000000000000000000000000000000000000000000000100000000000000000000000000000000000000000000000000000000000000600000000000000000000000000000000000000000000000000000000000000016000301001101000000000000000000000000000186a000000000000000000000",
        "nonce": "0x4d",
        "chainId": "0x504"
      },
      "additionalContracts": [],
      "isFixedGasLimit": false
    }
  ],
  "receipts": [
    {
      "status": "0x1",
      "cumulativeGasUsed": "0x67a70",
      "logs": [
        {
          "address": "0xeac136456d078bb76f59dccb2d5e008b31afe1cf",
          "topics": [
            "0x779cb2dd9d2bb1be1737d05435d744facbfb84a2a4912e21379d39beddcdc805"
          ],
          "data": "0x00000000000000000000000095608557eb1fa88d07fb6af29fcb76b25a93bb2c00000000000000000000000000000000000000000000000000000000000075ae0000000000000000000000000000000000000000000000000000000000002710000000000000000000000000ec0906949f88f72bf9206e84764163e24a56a499",
          "blockHash": "0xc91cf69be3d20f978b49ea3e2c810491a8dffefadd22600072a33f165a507ec0",
          "blockNumber": "0xc37128",
          "transactionHash": "0xfe1d79e1614ad67612b95c9dbd1437c49f54ac44ddc93408b7f1f70cd66aa1f4",
          "transactionIndex": "0x0",
          "logIndex": "0x0",
          "removed": false
        },
        {
          "address": "0xeac136456d078bb76f59dccb2d5e008b31afe1cf",
          "topics": [
            "0x82118522aa536ac0e96cc5c689407ae42b89d592aa133890a01f1509842f5081"
          ],
          "data": "0x00000000000000000000000095608557eb1fa88d07fb6af29fcb76b25a93bb2c00000000000000000000000000000000000000000000000000000000000075ae0000000000000000000000000000000000000000000000000000000000000060000000000000000000000000000000000000000000000000000000000000000f000000000000000000000000000000000000000000000000000000000000000200000000000000000000000000000000000000000000000000000000000000ff000000000000000000000000000000000000000000000000000000000000000000000000000000000000000000000000000000000000000000000000000000c00000000000000000000000000000000000000000000000000000000000000120000000000000000000000000000000000000000000000000000000000000000200000000000000000000000033e5fcc13d7439cc62d54c41aa966197145b3cd700000000000000000000000034730f2570e6cff8b1c91faabf37d0dd917c43670000000000000000000000000000000000000000000000000000000000000000",
          "blockHash": "0xc91cf69be3d20f978b49ea3e2c810491a8dffefadd22600072a33f165a507ec0",
          "blockNumber": "0xc37128",
          "transactionHash": "0xfe1d79e1614ad67612b95c9dbd1437c49f54ac44ddc93408b7f1f70cd66aa1f4",
          "transactionIndex": "0x0",
          "logIndex": "0x1",
          "removed": false
        },
        {
          "address": "0xeac136456d078bb76f59dccb2d5e008b31afe1cf",
          "topics": [
            "0x779cb2dd9d2bb1be1737d05435d744facbfb84a2a4912e21379d39beddcdc805"
          ],
          "data": "0x00000000000000000000000095608557eb1fa88d07fb6af29fcb76b25a93bb2c00000000000000000000000000000000000000000000000000000000000075e80000000000000000000000000000000000000000000000000000000000002710000000000000000000000000ec0906949f88f72bf9206e84764163e24a56a499",
          "blockHash": "0xc91cf69be3d20f978b49ea3e2c810491a8dffefadd22600072a33f165a507ec0",
          "blockNumber": "0xc37128",
          "transactionHash": "0xfe1d79e1614ad67612b95c9dbd1437c49f54ac44ddc93408b7f1f70cd66aa1f4",
          "transactionIndex": "0x0",
          "logIndex": "0x2",
          "removed": false
        },
        {
          "address": "0xeac136456d078bb76f59dccb2d5e008b31afe1cf",
          "topics": [
            "0x82118522aa536ac0e96cc5c689407ae42b89d592aa133890a01f1509842f5081"
          ],
          "data": "0x00000000000000000000000095608557eb1fa88d07fb6af29fcb76b25a93bb2c00000000000000000000000000000000000000000000000000000000000075e80000000000000000000000000000000000000000000000000000000000000060000000000000000000000000000000000000000000000000000000000000000f000000000000000000000000000000000000000000000000000000000000000200000000000000000000000000000000000000000000000000000000000000ff000000000000000000000000000000000000000000000000000000000000000000000000000000000000000000000000000000000000000000000000000000c00000000000000000000000000000000000000000000000000000000000000120000000000000000000000000000000000000000000000000000000000000000200000000000000000000000033e5fcc13d7439cc62d54c41aa966197145b3cd700000000000000000000000034730f2570e6cff8b1c91faabf37d0dd917c43670000000000000000000000000000000000000000000000000000000000000000",
          "blockHash": "0xc91cf69be3d20f978b49ea3e2c810491a8dffefadd22600072a33f165a507ec0",
          "blockNumber": "0xc37128",
          "transactionHash": "0xfe1d79e1614ad67612b95c9dbd1437c49f54ac44ddc93408b7f1f70cd66aa1f4",
          "transactionIndex": "0x0",
          "logIndex": "0x3",
          "removed": false
        }
      ],
      "logsBloom": "0x00000000000000000000000000000000000000000000000000000000000000000000000000000000000000000000000000000000000000000000000000000000000000000000000000000040000000000000010000000000002000000000000000000000000000000000000000000000000000000000000001000000000000000000000000000000000000000000000000000000000000000000000000000000000000000000000000000002000000000000000000000000000000000000000200000000000000000000000000000000000000000000000000000000000000000008000000800000000000000000000000000000000000000000000000000010",
      "type": "0x2",
      "transactionHash": "0xfe1d79e1614ad67612b95c9dbd1437c49f54ac44ddc93408b7f1f70cd66aa1f4",
      "transactionIndex": "0x0",
      "blockHash": "0xc91cf69be3d20f978b49ea3e2c810491a8dffefadd22600072a33f165a507ec0",
      "blockNumber": "0xc37128",
      "gasUsed": "0x67a70",
      "effectiveGasPrice": "0x7823ff280",
      "from": "0x0ece75f3c36f7df2136dac7633165dbff53de3cd",
      "to": "0x1a44076050125825900e736c501f859c50fe728c",
      "contractAddress": null
    },
    {
      "status": "0x1",
      "cumulativeGasUsed": "0x52ec0",
      "logs": [
        {
          "address": "0x2f4c6eea955e95e6d65e08620d980c0e0e92211f",
          "topics": [
            "0x82118522aa536ac0e96cc5c689407ae42b89d592aa133890a01f1509842f5081"
          ],
          "data": "0x00000000000000000000000095608557eb1fa88d07fb6af29fcb76b25a93bb2c00000000000000000000000000000000000000000000000000000000000075ae0000000000000000000000000000000000000000000000000000000000000060000000000000000000000000000000000000000000000000000000000000000f000000000000000000000000000000000000000000000000000000000000000200000000000000000000000000000000000000000000000000000000000000ff000000000000000000000000000000000000000000000000000000000000000000000000000000000000000000000000000000000000000000000000000000c00000000000000000000000000000000000000000000000000000000000000120000000000000000000000000000000000000000000000000000000000000000200000000000000000000000033e5fcc13d7439cc62d54c41aa966197145b3cd700000000000000000000000034730f2570e6cff8b1c91faabf37d0dd917c43670000000000000000000000000000000000000000000000000000000000000000",
          "blockHash": "0xb2deea827a814c6d87bbf3a5fd3175f3aadc191bf69755b74251d35f00c21f0e",
          "blockNumber": "0xc37129",
          "transactionHash": "0xfd7f74ad46f345b739e45bd153a608ab3741319cf82ca95955c21b01c458ad2e",
          "transactionIndex": "0x0",
          "logIndex": "0x0",
          "removed": false
        },
        {
          "address": "0x2f4c6eea955e95e6d65e08620d980c0e0e92211f",
          "topics": [
            "0x82118522aa536ac0e96cc5c689407ae42b89d592aa133890a01f1509842f5081"
          ],
          "data": "0x00000000000000000000000095608557eb1fa88d07fb6af29fcb76b25a93bb2c00000000000000000000000000000000000000000000000000000000000075e80000000000000000000000000000000000000000000000000000000000000060000000000000000000000000000000000000000000000000000000000000000f000000000000000000000000000000000000000000000000000000000000000200000000000000000000000000000000000000000000000000000000000000ff000000000000000000000000000000000000000000000000000000000000000000000000000000000000000000000000000000000000000000000000000000c00000000000000000000000000000000000000000000000000000000000000120000000000000000000000000000000000000000000000000000000000000000200000000000000000000000033e5fcc13d7439cc62d54c41aa966197145b3cd700000000000000000000000034730f2570e6cff8b1c91faabf37d0dd917c43670000000000000000000000000000000000000000000000000000000000000000",
          "blockHash": "0xb2deea827a814c6d87bbf3a5fd3175f3aadc191bf69755b74251d35f00c21f0e",
          "blockNumber": "0xc37129",
          "transactionHash": "0xfd7f74ad46f345b739e45bd153a608ab3741319cf82ca95955c21b01c458ad2e",
          "transactionIndex": "0x0",
          "logIndex": "0x1",
          "removed": false
        }
      ],
      "logsBloom": "0x00000000000000000000000000000000000000200000000000000000000002000000000000000000000000000000000000000000000000000000000000000000000000000000000000000000000000000000000000000000002000000000000000000008000000000000000000000000000000000000000000000000000000000000000000000000000000000000000000000000000000000000000000000000000000000000000000000002000000000000000000000000000000000000000000000000000000000000000000000000000000000000000000000000000000000000000000000000000000000000000000000000000000000000000000000010",
      "type": "0x2",
      "transactionHash": "0xfd7f74ad46f345b739e45bd153a608ab3741319cf82ca95955c21b01c458ad2e",
      "transactionIndex": "0x0",
      "blockHash": "0xb2deea827a814c6d87bbf3a5fd3175f3aadc191bf69755b74251d35f00c21f0e",
      "blockNumber": "0xc37129",
      "gasUsed": "0x52ec0",
      "effectiveGasPrice": "0x7823ff280",
      "from": "0x0ece75f3c36f7df2136dac7633165dbff53de3cd",
      "to": "0x1a44076050125825900e736c501f859c50fe728c",
      "contractAddress": null
    },
    {
      "status": "0x1",
      "cumulativeGasUsed": "0x27708",
      "logs": [
        {
          "address": "0x95608557eb1fa88d07fb6af29fcb76b25a93bb2c",
          "topics": [
            "0x238399d427b947898edb290f5ff0f9109849b1c3ba196a42e35f00c50a54b98b"
          ],
          "data": "0x00000000000000000000000000000000000000000000000000000000000075e8000000000000000000000000f89eab4a9a4c87d4a40e1e4e325c3cda985b0b26",
          "blockHash": "0x629146fa0bbbf068510cdab40bc211e37edee8d8193ce44150aa1469918d6aba",
          "blockNumber": "0xc3712a",
          "transactionHash": "0x8c86b7fa52897a1dfae2c79968ae05f455616dcec6d6255124e8acce3b57d99c",
          "transactionIndex": "0x0",
          "logIndex": "0x0",
          "removed": false
        }
      ],
      "logsBloom": "0x00000000000000000000000000000000000000000002000000000000000000000000000000000000000000000000000000000000000000000800000000000000000000000000000000000000000000000000000000000000000000000000000000000000000000000000000000000000000000000000000000000000000000000000000000000000000000000000000000000000000000000000000000000000010000000000000000000000000000000000000000000000000002000000000000000000000000000100000000000000000000000000000000040000000000000000000000000000000000000000000000000000000000000000000000000000",
      "type": "0x2",
      "transactionHash": "0x8c86b7fa52897a1dfae2c79968ae05f455616dcec6d6255124e8acce3b57d99c",
      "transactionIndex": "0x0",
      "blockHash": "0x629146fa0bbbf068510cdab40bc211e37edee8d8193ce44150aa1469918d6aba",
      "blockNumber": "0xc3712a",
      "gasUsed": "0x27708",
      "effectiveGasPrice": "0x7823ff280",
      "from": "0x0ece75f3c36f7df2136dac7633165dbff53de3cd",
      "to": "0x95608557eb1fa88d07fb6af29fcb76b25a93bb2c",
      "contractAddress": null
    },
    {
      "status": "0x1",
      "cumulativeGasUsed": "0x3a399",
      "logs": [
        {
          "address": "0x95608557eb1fa88d07fb6af29fcb76b25a93bb2c",
          "topics": [
            "0x238399d427b947898edb290f5ff0f9109849b1c3ba196a42e35f00c50a54b98b"
          ],
          "data": "0x00000000000000000000000000000000000000000000000000000000000075ae00000000000000000000000095608557eb1fa88d07fb6af29fcb76b25a93bb2c",
          "blockHash": "0x9558a9ec97c24036ded8e08126cc766205b267063c0667ab56db3b9a80252b80",
          "blockNumber": "0xc3712b",
          "transactionHash": "0xc9280ed41e8db2589e79578ad97bd87ac36ef345481c99f627138efd8de8894f",
          "transactionIndex": "0x2",
          "logIndex": "0x1",
          "removed": false
        }
      ],
      "logsBloom": "0x00000000000000000000000000000000000000000002000000000000000000000000000000000000000000000000000000000000000000000800000000000000000000000000000000000000000000000000000000000000000000000000000000000000000000000000000000000000000000000000000000000000000000000000000000000000000000000000000000000000000000000000000000000000010000000000000000000000000000000000000000000000000002000000000000000000000000000100000000000000000000000000000000040000000000000000000000000000000000000000000000000000000000000000000000000000",
      "type": "0x2",
      "transactionHash": "0xc9280ed41e8db2589e79578ad97bd87ac36ef345481c99f627138efd8de8894f",
      "transactionIndex": "0x2",
      "blockHash": "0x9558a9ec97c24036ded8e08126cc766205b267063c0667ab56db3b9a80252b80",
      "blockNumber": "0xc3712b",
      "gasUsed": "0x27708",
      "effectiveGasPrice": "0x7823ff280",
      "from": "0x0ece75f3c36f7df2136dac7633165dbff53de3cd",
      "to": "0x95608557eb1fa88d07fb6af29fcb76b25a93bb2c",
      "contractAddress": null
    },
    {
      "status": "0x1",
      "cumulativeGasUsed": "0x4da18",
      "logs": [
        {
          "address": "0x95608557eb1fa88d07fb6af29fcb76b25a93bb2c",
          "topics": [
            "0xbe4864a8e820971c0247f5992e2da559595f7bf076a21cb5928d443d2a13b674"
          ],
          "data": "0x00000000000000000000000000000000000000000000000000000000000000200000000000000000000000000000000000000000000000000000000000000002000000000000000000000000000000000000000000000000000000000000004000000000000000000000000000000000000000000000000000000000000000e000000000000000000000000000000000000000000000000000000000000075ae000000000000000000000000000000000000000000000000000000000000000100000000000000000000000000000000000000000000000000000000000000600000000000000000000000000000000000000000000000000000000000000016000301001101000000000000000000000000000138800000000000000000000000000000000000000000000000000000000000000000000000000000000075e8000000000000000000000000000000000000000000000000000000000000000100000000000000000000000000000000000000000000000000000000000000600000000000000000000000000000000000000000000000000000000000000016000301001101000000000000000000000000000186a000000000000000000000",
          "blockHash": "0x995c318ed482bade08d69079fb67fe73c8c7d8003294ef28dc9bdd9491ecf028",
          "blockNumber": "0xc3712c",
          "transactionHash": "0xbb1e99c9befa8aeaf496c5d1b310e76070288b6a24e3dfa675eeeaedfbfcc5e1",
          "transactionIndex": "0x1",
          "logIndex": "0x0",
          "removed": false
        }
      ],
      "logsBloom": "0x00000000000000000000000000000000000000000002000000000000000000000000000000000000000000000000000000000000000000000000400000000000000000000000000000000000000000000000000000000000000000000000000000000000000000000000000000000000000000000000000000000000000000000000000000000000000000000000000000000000000000000000000000080000010000000000000000000000000000000000000000000000000000000000000000000000000000000100000002000000000000000000000000000000000000000000000000000000000000000000000000000000000000000000000000000000",
      "type": "0x2",
      "transactionHash": "0xbb1e99c9befa8aeaf496c5d1b310e76070288b6a24e3dfa675eeeaedfbfcc5e1",
      "transactionIndex": "0x1",
      "blockHash": "0x995c318ed482bade08d69079fb67fe73c8c7d8003294ef28dc9bdd9491ecf028",
      "blockNumber": "0xc3712c",
      "gasUsed": "0x285a8",
      "effectiveGasPrice": "0x7823ff280",
      "from": "0x0ece75f3c36f7df2136dac7633165dbff53de3cd",
      "to": "0x95608557eb1fa88d07fb6af29fcb76b25a93bb2c",
      "contractAddress": null
    }
  ],
  "libraries": [],
  "pending": [],
  "returns": {},
  "timestamp": 1759354501086,
  "chain": 1284,
  "commit": "f83972d"
}